S01100005079585472616E73312E73726563B9
S11300000C94FE000C9412010C9412010C94120135
S11300100C9412010C9412010C9412010C94120110
S11300200C9412010C9412010C9412010C94120100
S11300300C9412010C9412010C9412010C941201F0
S11300400C9412010C9412010C9412010C941201E0
S11300500C9412010C9412010C9412010C941201D0
S11300600C9412010C9412010C9412010C941201C0
S11300700C9412010C9412010C9412010C941201B0
S11300800C9412010C9412010C9412010C941201A0
S11300900C9412010C9412010C9412010C94120190
S11300A00C9412010C9412010C9412010C94120180
S11300B00C9412010C9412010C9412010C94120170
S11300C00C9412010C9412010C9412010C94120160
S11300D00C9412010C9412010C9412010C94120150
S11300E00C9412010C9412010C9412010C94120140
S11300F00C9412010C9412010C9412010C94120130
S11301000C9412010C9412010C9412010C9412011F
S11301100C9412010C9412010C9412010C9412010F
S11301200C9412010C9412010C9412010C941201FF
S11301300C9412010C9412010C9412010C941201EF
S11301400C9412010C9412010C9412010C941201DF
S11301500C9412010C9412010C9412010C941201CF
S11301600C9412010C9412010C9412010C941201BF
S11301700C9412010C9412010C9412010C941201AF
S11301800C9412010C9412010C9412010C9412019F
S11301900C9412010C9412010C9412010C9412018F
S11301A00C9412010C9412010C9412010C9412017F
S11301B00C9412010C9412010C9412010C9412016F
S11301C00C9412010C9412010C9412010C9412015F
S11301D00C9412010C9412010C9412010C9412014F
S11301E00C9412010C9412010C9412010C9412013F
S11301F00C9412010C9412010C94120111241FBED0
S1130200CFEFCDBFDFE3DEBF00E00CBF20E2A0E014
S1130210B0E201C01D92A230B207E1F70E942401AE
S11302200C9458010C940000E1EAF8E0908195FFE9
S1130230FDCF8093A0080895E1EAF8E08081882347
S1130240ECF78091A008089588E08093410684E04B
S1130250809342068CE08093A6081092A70888E158
S11302608093A40883E08093A5088FEF8093A10670
S113027010920020C0EAD6E01FEF1C830E941C01EC
S113028080930120809101208136B9F71C820E945D
S11302901C018F3F19F00E941401F9CF2FE78AE166
S11302A096E0215080409040E1F700C00000E5CF87
S10702B0F894FFCFEC
S9030000FC
