S01A00004F494C53202D204578706F6E656E7469616C2E73726563DF
S11300000C9412010C941E010C941E010C941E01FC
S11300100C941E010C941E010C941E010C941E01E0
S11300200C941E010C941E010C941E010C941E01D0
S11300300C941E010C941E010C941E010C941E01C0
S11300400C941E010C941E010C941E010C941E01B0
S11300500C941E010C941E010C941E010C941E01A0
S11300600C941E010C941E010C941E010C941E0190
S11300700C941E010C941E010C941E010C941E0180
S11300800C941E010C941E010C941E010C941E0170
S11300900C941E010C941E010C941E010C941E0160
S11300A00C941E010C941E010C941E010C941E0150
S11300B00C941E010C941E010C941E010C941E0140
S11300C00C941E010C941E010C941E010C941E0130
S11300D00C941E010C941E010C941E010C941E0120
S11300E00C941E010C941E010C941E010C941E0110
S11300F00C941E010C941E010C941E010C941E0100
S11301000C941E010C941E010C941E010C941E01EF
S11301100C941E010C941E010C941E010C941E01DF
S11301200C941E010C941E010C941E010C941E01CF
S11301300C941E010C941E010C941E010C941E01BF
S11301400C941E010C941E010C941E010C941E01AF
S11301500C941E010C941E010C941E010C941E019F
S11301600C941E010C941E010C941E010C941E018F
S11301700C941E010C941E010C941E010C941E017F
S11301800C941E010C941E010C941E010C941E016F
S11301900C941E010C941E010C941E010C941E015F
S11301A00C941E010C941E010C941E010C941E014F
S11301B00C941E010C941E010C941E010C941E013F
S11301C00C941E010C941E010C941E010C941E012F
S11301D00C941E010C941E010C941E010C941E011F
S11301E00C941E010C941E010C941E010C941E010F
S11301F00C941E010C941E010C941E0107634236DC
S1130200B79BD8A71A39685618AEBAAB558C1D3CA3
S1130210B7CC5763BD6DEDFD753EF6177231BF0067
S11302200000803F11241FBECFEFCDBFDFE3DEBF50
S113023000E00CBF0E9430010C9405040C940000F3
S1130240E1EAF8E0908195FFFDCF8093A00808953E
S1130250E1EAF8E080818823ECF78091A008089512
S1130260DF92EF92FF920F931F93CF93DF931F922E
S1130270CDB7DEB788E08093410684E080934206E0
S11302808CE08093A6081092A70888E18093A408C4
S113029083E08093A5080DE010E00E9428018136D8
S11302A0E1F70E942801D82E0E942801E82E0E941E
S11302B02801F82E0E942801DA82EB82FC828D83C9
S11302C06A817B818C819D810E948F016E837F83F3
S11302D088879987DF80E884F9848E810E942001D1
S11302E08D2D0E9420018E2D0E9420018F2D0E94B1
S11302F020010150110989F680E090E00F90DF9110
S1130300CF911F910F91FF90EF90DF90089529F402
S113031016F00C94C1010C9413020C94C7010E94B2
S1130320F901A8F39638A0F707F80F92E8942BE3A5
S11303303AEA48EB5FE70E94A2020F920F920F92F3
S11303404DB75EB70F920E945C02ECEFF1E00E94A1
S1130350CA014F915F91EF91FF91E595EE1FFF1F49
S113036049F0FE57E0684427EE0F441FFA95E1F781
S11303704195550B0E9426020F9007FE0C941A0219
S1130380089597F99F6780E870E060E008959FEF13
S113039080EC0895DF93CF931F930F93FF92EF9216
S11303A0DF927B018C01689406C0DA2EEF010E9473
S11303B09F02FE01E894A5912591359145915591AF
S11303C0A6F3EF010E941103FE019701A801DA943C
S11303D069F7DF90EF90FF900F911F91CF91DF911C
S11303E0089557FD9058440F551F59F05F3F71F021
S11303F04795880F97FB991F61F09F3F79F0879588
S11304000895121613061406551FF2CF4695F1DF10
S113041008C0161617061806991FF1CF86957105A0
S1130420610508940895E894BB2766277727CB01D4
S113043097F908959B01AC0160E070E080E89FE3C8
S11304400C9466030C94C1010C94D8030E94F90126
S1130450D8F39923C9F3940F511DA3F3915050403D
S113046094F059F0882332F0660F771F881F91505B
S11304705040C1F79E3F51052CF7880F911D96956A
S1130480879597F908955F3FACF0983E9CF0BB27A1
S1130490869577956795B79508F4B1609395C1F7FC
S11304A0BB0F58F711F460FFE8CF6F5F7F4F8F4F9A
S11304B09F4FE3CF0C941402FA01DC01AA0FBB1F77
S11304C09B01AC01BF5728F42227332744275078D7
S11304D020C0B75190F4AB2F00244695379527954B
S11304E0011CA395D2F3002071F0220F331F441F87
S11304F0B395DAF30ED00C94F90261307105A0E8DB
S11305008A07B94630F49B01AC0166277727882710
S11305109078309621F02083318342835383089569
S11305200E94E60338F00E94ED0320F0952311F0B9
S11305300C94C1010C94C70111240C9414020E9460
S1130540F10170F3959FC1F3950F50E0551F629F21
S1130550F001729FBB27F00DB11D639FAA27F00D18
S1130560B11DAA1F649F6627B00DA11D661F829F3F
S11305702227B00DA11D621F739FB00DA11D621F24
S1130580839FA00D611D221F749F3327A00D611D41
S1130590231F849F600D211D822F762F6A2F112423
S11305A09F5750409AF0F1F088234AF0EE0FFF1F56
S11305B0BB1F661F771F881F91505040A9F79E3FAD
S11305C0510580F00C94C1010C9414025F3FE4F3D4
S11305D0983ED4F3869577956795B795F795E79503
S11305E09F5FC1F7FE2B880F911D9695879597F90C
S11305F008955058BB27AA270E9411030C94F403B2
S11306000E94E60338F00E94ED0320F039F49F3F86
S113061019F426F40C94C7010EF4E095E7FB0C944E
S1130620C101E92F0E94F10158F3BA176207730759
S11306308407950720F079F4A6F50C9413020EF4C0
S1130640E0950B2EBA2FA02D0B01B90190010C01DE
S1130650CA01A0011124FF27591B99F0593F50F4F6
S1130660503E68F11A16F040A22F232F342F44274E
S1130670585FF3CF469537952795A795F040539546
S1130680C9F77EF41F16BA0B620B730B840BBAF016
S11306909150A1F0FF0FBB1F661F771F881FC2F781
S11306A00EC0BA0F621F731F841F48F48795779595
S11306B06795B795F7959E3F08F0B0CF9395880F4F
S11306C008F09927EE0F9795879508950E947A036D
S11306D00C94F4030E94ED0358F00E94E60340F0EA
S11306E029F45F3F29F00C94C10151110C941402B8
S11306F00C94C7010E94F10168F39923B1F35523C7
S113070091F3951B550BBB27AA2762177307840720
S113071038F09F5F5F4F220F331F441FAA1FA9F3B6
S113072035D00E2E3AF0E0E832D091505040E695A4
S1130730001CCAF72BD0FE2F29D0660F771F881F05
S1130740BB1F261737074807AB07B0E809F0BB0BF8
S1130750802DBF01FF2793585F4F3AF09E3F51050C
S113076078F00C94C1010C9414025F3FE4F3983EBA
S1130770D4F3869577956795B795F7959F5FC9F7F5
S1130780880F911D9695879597F90895E1E0660F76
S1130790771F881FBB1F621773078407BA0720F0EF
S11307A0621B730B840BBA0BEE1F88F7E095089558
S11307B09F3F31F0915020F4879577956795B795D1
S11307C0880F911D9695879597F9089500240A94AA
S11307D01616170618060906089500240A94121618
S11307E01306140605060895092E0394000C11F44B
S11307F0882352F0BB0F40F4BF2B11F460FF04C0F8
S11108006F5F7F4F8F4F9F4F0895F894FFCF87
S9030000FC
