:100000000C942B010C9437010C9437010C9437019C
:100010000C9437010C9437010C9437010C94370180
:100020000C9437010C9437010C9437010C94370170
:100030000C9437010C9437010C9437010C94370160
:100040000C9437010C9437010C9437010C94370150
:100050000C9437010C9437010C9437010C94370140
:100060000C9437010C9437010C9437010C94370130
:100070000C9437010C9437010C9437010C94370120
:100080000C9437010C9437010C9437010C94370110
:100090000C9437010C9437010C9437010C94370100
:1000A0000C9437010C9437010C9437010C943701F0
:1000B0000C9437010C9437010C9437010C943701E0
:1000C0000C9437010C9437010C9437010C943701D0
:1000D0000C9437010C9437010C9437010C943701C0
:1000E0000C9437010C9437010C9437010C943701B0
:1000F0000C9437010C9437010C9437010C943701A0
:100100000C9437010C9437010C9437010C9437018F
:100110000C9437010C9437010C9437010C9437017F
:100120000C9437010C9437010C9437010C9437016F
:100130000C9437010C9437010C9437010C9437015F
:100140000C9437010C9437010C9437010C9437014F
:100150000C9437010C9437010C9437010C9437013F
:100160000C9437010C9437010C9437010C9437012F
:100170000C9437010C9437010C9437010C9437011F
:100180000C9437010C9437010C9437010C9437010F
:100190000C9437010C9437010C9437010C943701FF
:1001A0000C9437010C9437010C9437010C943701EF
:1001B0000C9437010C9437010C9437010C943701DF
:1001C0000C9437010C9437010C9437010C943701CF
:1001D0000C9437010C9437010C9437010C943701BF
:1001E0000C9437010C9437010C9437010C943701AF
:1001F0000C9437010C9437010C943701080000006F
:10020000BE922449123EABAAAA2ABECDCCCC4C3E0B
:1002100000000080BEABAAAAAA3E00000000BF00FA
:100220000000803F0000000000084178D3BB4387F6
:10023000D1133D190E3CC3BD4282AD2B3E68EC820A
:1002400076BED98FE1A93E4C80EFFFBE01C4FF7F8F
:100250003F000000000011241FBECFEFCDBFDFE341
:10026000DEBF00E00CBF0E9449010C9489030C948E
:100270000000E1EAF8E0908195FFFDCF8093A008AF
:100280000895E1EAF8E080818823ECF78091A008E6
:100290000895DF92EF92FF920F931F93CF93DF9316
:1002A0001F92CDB7DEB788E08093410684E080934B
:1002B00042068CE08093A6081092A70888E18093FC
:1002C000A40883E08093A5080DE010E00E9441019E
:1002D0008136E1F70E944101D82E0E944101E82EAB
:1002E0000E944101F82E0E944101DA82EB82FC82D9
:1002F0008D836A817B818C819D810E94A8016E83A0
:100300007F8388879987DF80E884F9848E810E94C3
:1003100039018D2D0E9439018E2D0E9439018F2DBA
:100320000E9439010150110989F680E090E00F9098
:10033000DF91CF911F910F91FF90EF90DF90089583
:1003400016F00C9409030C94170368940C9403039F
:100350000E946803A8F39923C1F3AEF3DF93CF9310
:100360001F930F93FF92C92FDD2788232AF021972F
:10037000660F771F881FDAF720E030E040E85FEB78
:100380009FE3883920F0803E38F021968F770E94D5
:100390005A02ECEFF1E004C00E945A02E9E2F2E0F6
:1003A0000E941A038B01BE01EC01FB2E6F577109ED
:1003B0007595771F880B990B0E94C80228E132E7D8
:1003C00041E35FE30E94FF01AF2D9801AE01FF9072
:1003D0000F911F91CF91DF910E9471020C944F03F6
:1003E0000E94410338F00E94480320F0952311F049
:1003F0000C9403030C94170311240C9483030E94A0
:10040000600370F3959FC1F3950F50E0551F629FF5
:10041000F001729FBB27F00DB11D639FAA27F00D5D
:10042000B11DAA1F649F6627B00DA11D661F829F84
:100430002227B00DA11D621F739FB00DA11D621F69
:10044000839FA00D611D221F749F3327A00D611D86
:10045000231F849F600D211D822F762F6A2F112468
:100460009F5750409AF0F1F088234AF0EE0FFF1F9B
:10047000BB1F661F771F881F91505040A9F79E3FF2
:10048000510580F00C9403030C9483035F3FE4F365
:10049000983ED4F3869577956795B795F795E79548
:1004A0009F5FC1F7FE2B880F911D9695879597F951
:1004B00008955058BB27AA270E9471020C944F033D
:1004C0000E94410338F00E94480320F039F49F3F16
:1004D00019F426F40C9417030EF4E095E7FB0C9442
:1004E0000303E92F0E94600358F3BA1762077307EA
:1004F0008407950720F079F4A6F50C9482030EF496
:10050000E0950B2EBA2FA02D0B01B90190010C0123
:10051000CA01A0011124FF27591B99F0593F50F43B
:10052000503E68F11A16F040A22F232F342F442793
:10053000585FF3CF469537952795A795F04053958B
:10054000C9F77EF41F16BA0B620B730B840BBAF05B
:100550009150A1F0FF0FBB1F661F771F881FC2F7C6
:100560000EC0BA0F621F731F841F48F487957795DA
:100570006795B795F7959E3F08F0B0CF9395880F94
:1005800008F09927EE0F979587950895E89409C08C
:1005900097FB3EF490958095709561957F4F8F4FB6
:1005A0009F4F9923A9F0F92F96E9BB279395F695CC
:1005B000879577956795B795F111F8CFFAF4BB0F4A
:1005C00011F460FF1BC06F5F7F4F8F4F9F4F16C0AE
:1005D000882311F096E911C0772321F09EE8872F38
:1005E000762F05C0662371F096E8862F70E060E0F4
:1005F0002AF09A95660F771F881FDAF7880F96956D
:10060000879597F9089597F99F6780E870E060E013
:1006100008959F3F31F0915020F487957795679525
:10062000B795880F911D9695879597F908959FEF37
:1006300080EC0895DF93CF931F930F93FF92EF9277
:10064000DF927B018C01689406C0DA2EEF010E94D4
:10065000FF01FE01E894A5912591359145915591B1
:10066000A6F3EF010E947102FE019701A801DA943E
:1006700069F7DF90EF90FF900F911F91CF91DF917D
:10068000089500240A9416161706180609060895F8
:1006900000240A9412161306140605060895092E5E
:1006A0000394000C11F4882352F0BB0F40F4BF2BCD
:1006B00011F460FF04C06F5F7F4F8F4F9F4F08950D
:1006C00057FD9058440F551F59F05F3F71F0479503
:1006D000880F97FB991F61F09F3F79F087950895E8
:1006E000121613061406551FF2CF4695F1DF08C007
:1006F000161617061806991FF1CF86957105610524
:1007000008940895E894BB2766277727CB0197F9CB
:060710000895F894FFCFEC
:00000001FF
