:100000000C94FE000C940A010C940A010C940A0151
:100010000C940A010C940A010C940A010C940A0134
:100020000C940A010C940A010C940A010C940A0124
:100030000C940A010C940A010C940A010C940A0114
:100040000C940A010C940A010C940A010C940A0104
:100050000C940A010C940A010C940A010C940A01F4
:100060000C940A010C940A010C940A010C940A01E4
:100070000C940A010C940A010C940A010C940A01D4
:100080000C940A010C940A010C940A010C940A01C4
:100090000C940A010C940A010C940A010C940A01B4
:1000A0000C940A010C940A010C940A010C940A01A4
:1000B0000C940A010C940A010C940A010C940A0194
:1000C0000C940A010C940A010C940A010C940A0184
:1000D0000C940A010C940A010C940A010C940A0174
:1000E0000C940A010C940A010C940A010C940A0164
:1000F0000C940A010C940A010C940A010C940A0154
:100100000C940A010C940A010C940A010C940A0143
:100110000C940A010C940A010C940A010C940A0133
:100120000C940A010C940A010C940A010C940A0123
:100130000C940A010C940A010C940A010C940A0113
:100140000C940A010C940A010C940A010C940A0103
:100150000C940A010C940A010C940A010C940A01F3
:100160000C940A010C940A010C940A010C940A01E3
:100170000C940A010C940A010C940A010C940A01D3
:100180000C940A010C940A010C940A010C940A01C3
:100190000C940A010C940A010C940A010C940A01B3
:1001A0000C940A010C940A010C940A010C940A01A3
:1001B0000C940A010C940A010C940A010C940A0193
:1001C0000C940A010C940A010C940A010C940A0183
:1001D0000C940A010C940A010C940A010C940A0173
:1001E0000C940A010C940A010C940A010C940A0163
:1001F0000C940A010C940A010C940A0111241FBEEC
:10020000CFEFCDBFDFE3DEBF00E00CBF0E941C01DB
:100210000C9432020C940000E1EAF8E0908195FF22
:10022000FDCF8093A0080895E1EAF8E0808188235B
:10023000ECF78091A0080895CF92DF92EF92FF92A1
:10024000CF93DF931F92CDB7DEB788E0809341064E
:1002500084E0809342068CE08093A6081092A70861
:1002600088E18093A40883E08093A5080E9414018C
:100270008136E1F70E941401D82E0E941401E82E65
:100280000E941401F82E0E941401DA82EB82FC8293
:100290008D83CA80DB80EC80FD80A7019601C701B9
:1002A000B6010E947401A70196010E9474016E8339
:1002B0007F8388879987DF80E884F9848E810E9414
:1002C0000C018D2D0E940C018E2D0E940C018F2D92
:1002D0000E940C0180E090E00F90DF91CF91FF90A1
:1002E000EF90DF90CF9008950E9487010C94F80161
:1002F0000E94EA0138F00E94F10120F0952311F0EC
:100300000C94E1010C94E70111240C942C020E943E
:10031000090270F3959FC1F3950F50E0551F629F3E
:10032000F001729FBB27F00DB11D639FAA27F00D4E
:10033000B11DAA1F649F6627B00DA11D661F829F75
:100340002227B00DA11D621F739FB00DA11D621F5A
:10035000839FA00D611D221F749F3327A00D611D77
:10036000231F849F600D211D822F762F6A2F112459
:100370009F5750409AF0F1F088234AF0EE0FFF1F8C
:10038000BB1F661F771F881F91505040A9F79E3FE3
:10039000510580F00C94E1010C942C025F3FE4F3D2
:1003A000983ED4F3869577956795B795F795E79539
:1003B0009F5FC1F7FE2B880F911D9695879597F942
:1003C000089597F99F6780E870E060E008959FEFD7
:1003D00080EC089500240A941616170618060906DC
:1003E000089500240A9412161306140605060895AB
:1003F000092E0394000C11F4882352F0BB0F40F433
:10040000BF2B11F460FF04C06F5F7F4F8F4F9F4F72
:10041000089557FD9058440F551F59F05F3F71F0F4
:100420004795880F97FB991F61F09F3F79F087955B
:100430000895121613061406551FF2CF4695F1DFE4
:1004400008C0161617061806991FF1CF8695710574
:10045000610508940895E894BB2766277727CB01A8
:0804600097F90895F894FFCF0D
:00000001FF
