:100000000C94FE000C940A010C940A010C940A0151
:100010000C940A010C940A010C940A010C940A0134
:100020000C940A010C940A010C940A010C940A0124
:100030000C940A010C940A010C940A010C940A0114
:100040000C940A010C940A010C940A010C940A0104
:100050000C940A010C940A010C940A010C940A01F4
:100060000C940A010C940A010C940A010C940A01E4
:100070000C940A010C940A010C940A010C940A01D4
:100080000C940A010C940A010C940A010C940A01C4
:100090000C940A010C940A010C940A010C940A01B4
:1000A0000C940A010C940A010C940A010C940A01A4
:1000B0000C940A010C940A010C940A010C940A0194
:1000C0000C940A010C940A010C940A010C940A0184
:1000D0000C940A010C940A010C940A010C940A0174
:1000E0000C940A010C940A010C940A010C940A0164
:1000F0000C940A010C940A010C940A010C940A0154
:100100000C940A010C940A010C940A010C940A0143
:100110000C940A010C940A010C940A010C940A0133
:100120000C940A010C940A010C940A010C940A0123
:100130000C940A010C940A010C940A010C940A0113
:100140000C940A010C940A010C940A010C940A0103
:100150000C940A010C940A010C940A010C940A01F3
:100160000C940A010C940A010C940A010C940A01E3
:100170000C940A010C940A010C940A010C940A01D3
:100180000C940A010C940A010C940A010C940A01C3
:100190000C940A010C940A010C940A010C940A01B3
:1001A0000C940A010C940A010C940A010C940A01A3
:1001B0000C940A010C940A010C940A010C940A0193
:1001C0000C940A010C940A010C940A010C940A0183
:1001D0000C940A010C940A010C940A010C940A0173
:1001E0000C940A010C940A010C940A010C940A0163
:1001F0000C940A010C940A010C940A0111241FBEEC
:10020000CFEFCDBFDFE3DEBF00E00CBF0E941C01DB
:100210000C9438030C940000E1EAF8E0908195FF1B
:10022000FDCF8093A0080895E1EAF8E0808188235B
:10023000ECF78091A00808954F925F926F927F92A1
:100240008F929F92AF92BF92CF92DF92EF92FF92E6
:100250000F931F93CF93DF931F92CDB7DEB788E044
:100260008093410684E0809342068CE08093A60848
:100270001092A70888E18093A40883E08093A508E2
:100280000DE010E00E9414018136E1F70E94140194
:10029000982E0E941401A82E0E941401B82E0E94CC
:1002A0001401C82E0E9414018136E1F70E94140146
:1002B000D82E0E941401E82E0E941401F82E0E94EC
:1002C00014019A82AB82BC82CD82DE82EF82F886F4
:1002D00089878A809B80AC80BD80CE80DF80E88467
:1002E000F984A5019401C501B4010E9470024B017B
:1002F0005C01A7019601C701B6010E9470029B0133
:10030000AC01C501B4010E94B3010E94E3026A87F7
:100310007B878C879D87DB84EC84FD848A850E94A3
:100320000C018D2D0E940C018E2D0E940C018F2D31
:100330000E940C010150110909F0A4CF80E090E067
:100340000F90DF91CF911F910F91FF90EF90DF9071
:10035000CF90BF90AF909F908F907F906F905F9065
:100360004F9008955058BB27AA270E94CA010C94A9
:1003700036020E94280238F00E942F0220F039F441
:100380009F3F19F426F40C9425020EF4E095E7FB48
:100390000C941F02E92F0E94470258F3BA17620714
:1003A00073078407950720F079F4A6F50C94690289
:1003B0000EF4E0950B2EBA2FA02D0B01B901900180
:1003C0000C01CA01A0011124FF27591B99F0593FC4
:1003D00050F4503E68F11A16F040A22F232F342F0C
:1003E0004427585FF3CF469537952795A795F0405A
:1003F0005395C9F77EF41F16BA0B620B730B840B6F
:10040000BAF09150A1F0FF0FBB1F661F771F881F26
:10041000C2F70EC0BA0F621F731F841F48F487957E
:1004200077956795B795F7959E3F08F0B0CF939570
:10043000880F08F09927EE0F97958795089597F9FB
:100440009F6780E870E060E008959FEF80EC08957A
:1004500000240A94161617061806090608950024A3
:100460000A9412161306140605060895092E03941D
:10047000000C11F4882352F0BB0F40F4BF2B11F491
:1004800060FF04C06F5F7F4F8F4F9F4F089557FDF0
:100490009058440F551F59F05F3F71F04795880FF2
:1004A00097FB991F61F09F3F79F087950895121689
:1004B00013061406551FF2CF4695F1DF08C0161635
:1004C00017061806991FF1CF8695710561050894E6
:1004D0000895E894BB2766277727CB0197F90895FD
:1004E0000E9483020C9436020E94280238F00E9477
:1004F0002F0220F0952311F00C941F020C9425027A
:1005000011240C946A020E94470270F3959FC1F374
:10051000950F50E0551F629FF001729FBB27F00DB1
:10052000B11D639FAA27F00DB11DAA1F649F662706
:10053000B00DA11D661F829F2227B00DA11D621F55
:10054000739FB00DA11D621F839FA00D611D221F0F
:10055000749F3327A00D611D231F849F600D211DF3
:10056000822F762F6A2F11249F5750409AF0F1F076
:1005700088234AF0EE0FFF1FBB1F661F771F881FDF
:1005800091505040A9F79E3F510580F00C941F02F6
:100590000C946A025F3FE4F3983ED4F38695779516
:1005A0006795B795F795E7959F5FC1F7FE2B880F85
:1005B000911D9695879597F9089519F416F40C9462
:1005C00025020C9423030E944F02B8F39923C9F328
:1005D000B6F39F57550B87FF0E9431030024A0E616
:1005E00040EA900180585695979528F4805C660FF4
:1005F000771F881F20F026173707480730F4621B43
:10060000730B840B202931294A2BA6951794079444
:10061000202531254A2758F7660F771F881F20F0BD
:1006200026173707480730F4620B730B840B200D35
:10063000311D411DA09581F7B901842F9158880F74
:100640009695879508959F3F31F0915020F48795B6
:1006500077956795B795880F911D9695879597F92A
:10066000089591505040660F771F881FD2F7089564
:04067000F894FFCF2C
:00000001FF
